S0150000547261666669635F4C696768742E73726563F9
S11300000C943A000C9494010C944C000C944C0005
S11300100C944C000C94F5010C944C000C944C0082
S11300200C944C000C944C000C944C000C944C001C
S11300300C944C000C944C000C944C000C944C000C
S11300400C944C000C944C000C944C000C944C00FC
S11300500C944C0057035A035E03620366036A035D
S11300606E037203C203C503C903CD03D103D503D1
S1130070D903DD0311241FBECFE5D8E0DEBFCDBF19
S113008020E0A0E6B0E001C01D92AA36B207E1F775
S11300900E941F020C94D0040C94000060E081E4E0
S11300A00E940C0261E081E40E940C0262E081E49F
S11300B00E940C0260E082E40E940C0261E082E48F
S11300C00E940C0262E082E40E940C0262E084E47A
S11300D00E941B0280E00E94370380E00E94A2037A
S11300E00E9429030E94330380916900813009F43E
S11300F087C068F1823009F4A8C0833009F4F0C0E5
S1130100F3CF80916900813091F1811120C060E0CA
S113011081E40E94100262E082E40E9410020E94C4
S11301209B036091620070916300809164009091E0
S1130130650020E030E040E05FE30E94E403609368
S113014062007093630080936400909365006091F3
S1130150620070916300809164009091650020E0DA
S113016030E040EA50E40E945004882354F2109294
S1130170620010926300109264001092650060E0C7
S113018081E40E94140262E082E40E94140281E08D
S113019080936900A9CF80916000909161000197DC
S11301A079F410926200109263001092640010922D
S11301B065000E947603109261001092600094CF53
S11301C061E081E40E94180261E082E40E94180266
S11301D00E949B03609162007091630080916400AF
S11301E09091650020E030E040E05FE30E94E4038A
S11301F06093620070936300809364009093650041
S11302006091620070916300809164009091650038
S113021020E030E040EA50E40E94500488230CF4CB
S1130220BACF109262001092630010926400109290
S1130230650061E081E40E94140261E082E40E94AE
S1130240140282E0809369004FCF62E081E40E944F
S1130250100260E082E40E9410020E94940362E0B3
S113026081E40E94140260E082E40E94140283E0AC
S11302708093690039CF809160009091610001976B
S113028079F410926200109263001092640010924C
S113029065000E947603109261001092600024CFE2
S11302A061E081E40E94180261E082E40E94180285
S11302B00E949B03609162007091630080916400CE
S11302C09091650020E030E040E05FE30E94E403A9
S11302D06093620070936300809364009093650060
S11302E06091620070916300809164009091650058
S11302F020E030E040EA50E40E94500488230CF4EB
S1130300BACF1092620010926300109264001092AF
S1130310650061E081E40E94140261E082E40E94CD
S1130320140210926900E0CE1F920F920FB60F9242
S113033011242F933F934F935F936F937F938F93E6
S11303409F93AF93BF93EF93FF93809168008F5F68
S113035080936800813019F0823039F035C083E031
S11303600E94B9038FE284BD2FC0809166009091F2
S113037067004F9748F58091690081110CC081E0B6
S113038080936900109262001092630010926400DE
S11303901092650011C0813039F481E090E09093AF
S11303A061008093600008C0833031F481E090E004
S11303B090936100809360000E94E10310926700B3
S11303C01092660010926800FF91EF91BF91AF9177
S11303D09F918F917F916F915F914F913F912F9159
S11303E00F900FBE0F901F9018951F920F920FB68B
S11303F00F9211248F939F938091660090916700D0
S1130400019690936700809366009F918F910F905F
S11304100FBE0F901F90189541E00E94240208958A
S113042041E00E947802089540E00E947802089515
S11304300E94F202089540E00E94240208950E945E
S11304404E0080E090E008958234E1F018F48134A5
S113045031F00895833441F18434C1F10895411198
S113046003C08AB38ABB0895413009F040C02AB35F
S113047081E090E002C0880F991F6A95E2F7822B11
S11304808ABB0895411103C087B387BB08954130E7
S113049071F527B381E090E002C0880F991F6A9537
S11304A0E2F7822B87BB0895411103C084B384BB58
S11304B008954130E1F424B381E090E002C0880F54
S11304C0991F6A95E2F7822B84BB0895411103C0FA
S11304D081B381BB0895413051F421B381E090E0B0
S11304E002C0880F991F6A95E2F7822B81BB089599
S11304F0823431F118F4813439F008958334E1F110
S1130500843409F454C0089541110CC02BB381E024
S113051090E002C0880F991F6A95E2F780958223C4
S11305208BBB0895413009F05CC02BB381E090E0AF
S113053002C0880F991F6A95E2F7822B8BBB08953E
S113054041110CC028B381E090E002C0880F991FCC
S11305506A95E2F78095822388BB0895413009F0BB
S113056040C028B381E090E002C0880F991F6A95CB
S1130570E2F7822B88BB089541110CC025B381E0BA
S113058090E002C0880F991F6A95E2F78095822354
S113059085BB0895413029F525B381E090E002C080
S11305A0880F991F6A95E2F7822B85BB0895411144
S11305B00CC022B381E090E002C0880F991F6A95B5
S11305C0E2F78095822382BB0895413051F422B32F
S11305D081E090E002C0880F991F6A95E2F7822BB0
S11305E082BB08958234A1F018F4813431F0089567
S11305F08334C9F0843411F108952BB381E090E081
S113060002C0880F991F6A95E2F782278BBB089571
S113061028B381E090E002C0880F991F6A95E2F741
S1130620822788BB089525B381E090E002C0880F3B
S1130630991F6A95E2F7822785BB089522B381E06A
S113064090E002C0880F991F6A95E2F7822782BB67
S11306500895789485B7816085BF85B785BF8BB7CA
S113066080648BBF089589B7806489BF0895813001
S113067049F028F0823051F0833061F0089583B757
S113068083BF089583B7886083BF089583B7806468
S113069083BF089583B7886483BF089590E088304A
S11306A0910518F5FC01E65DFF4F0C94CA0483B76D
S11306B083BF089583B7816083BF089583B7826041
S11306C083BF089583B7836083BF089583B784602D
S11306D083BF089583B7856083BF089583B7866019
S11306E083BF089583B7876083BF089513BE0895B9
S11306F01F93CF93DF93EB01142F0E944E0312BF7D
S113070020E030E008C008B600FEFDCF88B7816065
S113071088BF2F5F3F4F2C173D07A8F30E94760335
S1130720DF91CF911F9108954DEE64E170E085E073
S11307300E947803089548E162E070E085E00E9439
S113074078030895813049F028F0823051F08330E5
S113075061F0089585B585BD089585B5886085BD2A
S1130760089585B5806485BD089585B5886485BD83
S1130770089590E08830910518F5FC01EE5CFF4F78
S11307800C94CA0485B585BD089585B5816085BD81
S1130790089585B5826085BD089585B5836085BD5E
S11307A0089585B5846085BD089585B5856085BD4A
S11307B0089585B5866085BD089585B5876085BD36
S11307C0089515BC08955058BB27AA270E94FB031F
S11307D00C9490040E94820438F00E94890420F052
S11307E039F49F3F19F426F40C947F040EF4E09539
S11307F0E7FB0C947904E92F0E94A10458F3BA177B
S1130800620773078407950720F079F4A6F50C9422
S1130810C3040EF4E0950B2EBA2FA02D0B01B901E1
S113082090010C01CA01A0011124FF27591B99F062
S1130830593F50F4503E68F11A16F040A22F232F6E
S1130840342F4427585FF3CF469537952795A795BE
S1130850F0405395C9F77EF41F16BA0B620B730B65
S1130860840BBAF09150A1F0FF0FBB1F661F771FD6
S1130870881FC2F70EC0BA0F621F731F841F48F48B
S1130880879577956795B795F7959E3F08F0B0CF14
S11308909395880F08F09927EE0F979587950895FB
S11308A00E94550408F481E00895990F0008550F3B
S11308B0AA0BE0E8FEEF16161706E807F907C0F0E2
S11308C012161306E407F50798F0621B730B840BEA
S11308D0950B39F40A2661F0232B242B252B21F4C4
S11308E008950A2609F4A140A6958FEF811D811D64
S11308F0089597F99F6780E870E060E008959FEF9E
S113090080EC089500240A941616170618060906A2
S1130910089500240A941216130614060506089571
S1130920092E0394000C11F4882352F0BB0F40F4F9
S1130930BF2B11F460FF04C06F5F7F4F8F4F9F4F39
S1130940089557FD9058440F551F59F05F3F71F0BB
S11309504795880F97FB991F61F09F3F79F0879522
S11309600895121613061406551FF2CF4695F1DFAB
S113097008C0161617061806991FF1CF869571053B
S1130980610508940895E894BB2766277727CB016F
S113099097F90895EE0FFF1F0590F491E02D099447
S10709A0F894FFCFF5
S9030000FC
